:020000040800F2
:10000000B80600209101000865090008F7080008FB
:100010006109000863050008A7150008000000003A
:10002000000000000000000000000000D10F0008E8
:100030007507000800000000B90E0008B1110008A3
:10004000AB010008AB010008AB010008AB010008E0
:10005000AB010008AB010008AB010008AB010008D0
:10006000AB010008AB010008AB010008AB010008C0
:10007000AB010008AB010008AB010008AB010008B0
:10008000AB010008AB010008AB010008AB010008A0
:10009000AB010008AB010008AB010008AB01000890
:1000A000AB010008AB010008AB010008AB01000880
:1000B000AB010008AB010008AB010008AB01000870
:1000C000AB010008AB010008AB010008AB01000860
:1000D000AB01000895130008AB010008AB01000854
:1000E000AB010008AB010008AB01000800F002F80A
:1000F00000F03FF80AA090E8000C82448344AAF183
:100100000107DA4501D100F034F8AFF2090EBAE880
:100110000F0013F0010F18BFFB1A43F0010318473B
:100120001029000030290000103A24BF78C878C197
:10013000FAD8520724BF30C830C144BF04680C60ED
:10014000704700000023002400250026103A28BF35
:1001500078C1FBD8520728BF30C148BF0B60704739
:10016000752900F04B80002070471FB51FBD10B5EA
:1001700010BD00F0BCF91146FFF7F7FF01F01CFAC3
:1001800000F0DAF903B4FFF7F2FF03BC00F0E2F984
:100190000948804709480047FEE7FEE7FEE7FEE71B
:1001A000FEE7FEE7FEE7FEE7FEE7FEE70448054957
:1001B000054A064B70470000B5110008ED00000825
:1001C000B8000020B8060020B8020020B8020020C5
:1001D0000FB41CB5084B06AA7B44694600900598ED
:1001E00000F06DF904460020694600F07BF92046D6
:1001F0001CBC5DF814FB0000090300002DE9F04170
:100200000646002410687529314616A510D0AFF3B4
:100210000080002802DA404213A507E031688A070F
:1002200001D512A502E0490704D511A5012401E07A
:10023000AFF3008000210A2206F1240709E0B0FB99
:10024000F2FCB0FBF2F302FB1C003030785418468D
:10025000491C0028F3D123462A463046BDE8F04128
:1002600000F0CFB8000000002D0000002B000000BF
:10027000200000002DE9F05F894604464FF0000A97
:10028000DFF874B1FB44C0F820A02046E16888473D
:10029000002874D0252806D0D4E901219047206A8F
:1002A000401C2062F1E700265F462046E16888474F
:1002B0002028054607DB312D05D2781910F8200CCF
:1002C00008B10643F1E7B00701D526F00406C4F8EB
:1002D0001CA00027C4F818A02A2D09D0284601F038
:1002E00064F938B304EB8708303DC8F8185019E0BA
:1002F00059F8041B204604EB87029161E1688847A6
:10030000012F054618D1E069002820DA26F02006E2
:100310001DE0D8F8180000EB800005EB40003038F5
:10032000C8F818002046E1688847054601F03DF905
:100330000028EED1012F0AD02E2D08D12046E168E9
:1003400088477F1C0546022F46F02006C4DBA069C3
:10035000002803DA404246F00106A061F00701D010
:1003600026F010066C2D0BD0682D09D04C2D39D0FD
:100370006A2D35D0742D35D07A2D33D016E038E083
:10038000E1682F4620468847B842054609D16C2FC0
:1003900026D04FF48060E168064320468847054632
:1003A00004E06C2F1AD04FF4807006430DB3A5F112
:1003B0004100192802D8203546F400664A462946ED
:1003C000204626604E46FFF7CBFE80B101280BD0B9
:1003D000F61D26F0070000F1080956E74020E4E783
:1003E0008020D8E70020D6E706F104094DE728462B
:1003F00052E7206ABDE8F09F9627000070477047DB
:1004000070472DE9F0470D4699469246044600F1A3
:1004100024080168880604D5E06921F010012160F4
:1004200000E00120A84201DD471B00E00027A16990
:100430007A1902EB0900081AA0612078C00602D4DC
:100440002046AFF30080002608E0D4E901211AF825
:1004500006009047206A401C761C20624E45F4DB63
:100460002078C0060AD52046AFF3008006E0D4E924
:10047000012130209047206A401C2062381EA7F1DD
:100480000107F4DC07E0D4E9012118F805009047E2
:10049000206A401C2062281EA5F10105F3DC2046DD
:1004A000AFF300802078000602D50220BDE8F08777
:1004B0000120FBE701694A1C02610878704700B51A
:1004C0008FB0CDE901310021059105497944CDE98D
:1004D000031011466846FFF7CDFE0FB000BD0000C7
:1004E000E5FFFFFF0A6802F8010B0A6070477546D6
:1004F00000F02CF8AE4605006946534620F0070090
:10050000854618B020B5FFF751FEBDE820404FF0FA
:1005100000064FF000074FF000084FF0000B21F0ED
:100520000701AC46ACE8C009ACE8C009ACE8C009BA
:10053000ACE8C0098D46704710B50446AFF30080A3
:100540002046BDE81040FFF71DBE00000048704780
:100550005800002001491820ABBEFEE7260002002B
:10056000704700BFFEE7000008B50121082000F039
:10057000B5FC10208DF803000220ADF80000032028
:100580008DF802006946024800F018F908BD000025
:10059000000C014008B548208DF803000220ADF89A
:1005A00000006946014800F009F908BD000C01404F
:1005B00008B510208DF803000220ADF800000320DC
:1005C0008DF802006946024800F0F8F808BD000006
:1005D000000C014070B5002400251EE06410FFF7F8
:1005E000E7FF02210F4800F07DF9022000F0CFF86C
:1005F00002210C4800F078F9022000F0C8F8FFF75B
:10060000C9FF0221074800F064F908B144F08004F2
:100610003C2000F0BCF8681CC5B2082DDEDB20468B
:1006200070BD0000000C01402DE9FC5F002000902F
:100630002249087000F048F8CC2000F073F84420FC
:1006400000F070F840F2EE2000F095F800F03CF871
:10065000CC2000F067F8BE2000F064F8FFF7BAFF86
:100660000190FFF7B7FF8346DA464FF6FF7000EAC6
:100670000A2A01984AEA000A0AF47840B0F5784F4D
:1006800007D16FEA0A00401C1FFA80FA01200B49CB
:100690000870504601F093F906460022084B01F01D
:1006A000A1F904460022074B01F09CF9804601F0B5
:1006B00059F980B200900098BDE8FC9F36000020F8
:1006C0000000B03F0000244010B5FFF771FF022189
:1006D000134800F009F9052000F059F802211048EC
:1006E00000F000F94FF4F07000F051F802210C48CE
:1006F00000F0FAF83C2000F04AF8FFF74BFF022127
:10070000074800F0E6F804464FF4F07000F03FF8B8
:10071000FFF74EFF0221024800F0E6F8204610BD28
:10072000000C014070B5044600251EE0FFF740FFB5
:1007300002210F4800F0D6F8022000F028F804F05B
:10074000010020B102210A4800F0CEF803E00221A6
:10075000074800F0C7F83C2000F019F802210448CF
:1007600000F0C2F86410681CC5B2082DDEDB70BD55
:10077000000C0140704700B5034603E04FF47A7067
:1007800000F005F8181EA3F10103F7D100BD00EB3E
:10079000C001C9004FF0E0225161002191610521A3
:1007A000116100BF4FF0E021096901F48031002997
:1007B000F8D004214FF0E022116170472DE9F0419B
:1007C000024600250026002000230024002791F87F
:1007D00003C00CF00F0591F803C00CF0100CBCF135
:1007E000000F03D091F802C04CEA050591F800C053
:1007F000BCF1000F31D0146800202BE04FF0010C49
:100800000CFA00F3B1F800C00CEA03069E4220D1B6
:1008100083004FF00F0C0CFA03F7BC4305FA03FCFE
:100820004CEA040491F803C0BCF1280F06D14FF044
:10083000010C0CFA00FCC2F814C00AE091F803C0E5
:10084000BCF1480F05D14FF0010C0CFA00FCC2F8C6
:1008500010C0401C0828D1D31460B1F800C0BCF10E
:10086000FF0F34DD546800202EE000F1080C4FF03B
:10087000010808FA0CF3B1F800C00CEA03069E4226
:1008800021D183004FF00F0C0CFA03F7BC4305FA9B
:1008900003FC4CEA040491F803C0BCF1280F05D115
:1008A00000F1080C08FA0CF8C2F8148091F803C0A3
:1008B000BCF1480F07D100F1080C4FF0010808FA0D
:1008C0000CF8C2F81080401C0828CED35460BDE854
:1008D000F0810246002093680B400BB1012000E03C
:1008E0000020704741617047016170470AB10161A2
:1008F00000E04161704700BFFEE7000010B5002432
:100900004FF400610A48FFF7E4FF01280ED11420DC
:10091000FFF731FF00BF4FF400610548FFF7D9FF33
:100920000128F8D01420FFF726FF0224204610BD2E
:10093000000C014008B50121082000F0CFFA282062
:100940008DF8030040F60200ADF8000003208DF89A
:10095000020069460148FFF731FF08BD000C014065
:1009600000BFFEE77047000070B5002100230F2292
:10097000C47804B3154C246804F4E064C4F5E0645E
:10098000210AC1F10403CA40447804FA03F18478CF
:100990001440214309010E4C0678A155047804F057
:1009A0001F050124AC4005786D11AD0005F1E0256F
:1009B000C5F8004109E0047804F01F050124AC40AB
:1009C000044D0678761145F8264070BD0CED00E028
:1009D00000E400E080E100E002490143024A1160C6
:1009E000704700000000FA050CED00E070B500242F
:1009F0000EE00021204600F0F0F8002504E0002081
:100A000000F07CF9681CC5B2802DF8DB601CC4B214
:100A1000082CEEDB70BD000008B50121082000F0B5
:100A20005DFA14208DF8030003208DF802004FF4C6
:100A30008070ADF8000069460A48FFF7BFFE4FF42A
:100A40000070ADF8000069460648FFF7B7FE0122C6
:100A500011020448FFF74AFF012251020148FFF743
:100A600045FF08BD000C014070B50546002415E0A7
:100A70008020204100EA05024FF400710E48FFF784
:100A800035FF012211020C48FFF730FF00224FF41E
:100A900080710948FFF72AFF601CC4B2082CE7DB0D
:100AA000012211020448FFF721FF00224FF4807158
:100AB0000148FFF71BFF70BD000C014010B501227B
:100AC00051020A48FFF712FF012211020748FFF7FF
:100AD0000DFF00224FF400710448FFF707FF0022CA
:100AE0004FF480710148FFF701FF10BD000C014079
:100AF00010B500224FF400710648FFF7F7FE0122FF
:100B000011020448FFF7F2FE012251020148FFF7EB
:100B1000EDFE10BD000C014070B5002406E000257C
:100B200000E06D1CB5F57A7FFBD3641CB4F57A7FC9
:100B3000F5D3FFF771FFAE2000F0D0F8D52000F01C
:100B4000CDF8802000F0CAF8A82000F0C7F83F20B8
:100B500000F0C4F8D32000F0C1F8002000F0BEF887
:100B6000402000F0BBF8A12000F0B8F8C82000F049
:100B7000B5F8DA2000F0B2F8122000F0AFF88120CA
:100B800000F0ACF8CF2000F0A9F8D92000F0A6F8CA
:100B9000F12000F0A3F8DB2000F0A0F8302000F0F6
:100BA0009DF8A42000F09AF8A62000F097F88D2078
:100BB00000F094F8142000F091F8AF2000F08EF8C7
:100BC000FFF714FF70BD10B50246012000E050434E
:100BD0000B1EA1F10101FAD110BD70B505460C46FE
:100BE00045F0B00000F07AF8102141EA141000F04E
:100BF00075F804F00F0000F071F870BD2DE9F041B8
:100C000005460E461746721ED206110E6A1E520681
:100C1000100EFFF7E2FF002409E0A7F12001134ABC
:100C200002EB0111085D00F069F8601CC4B2082CE9
:100C3000F3DB721ED206110E6A1E012303EB420281
:100C4000D0B2FFF7CAFF00240BE0A7F12001074A4A
:100C500002EB011204F10801505C00F04FF8601C37
:100C6000C4B2082CF1DBBDE8F08100002E2400089E
:100C70002DE9F04780460E4617461D46002415E034
:100C8000281B411E0A20FFF79EFFB7FBF0F00A2148
:100C9000B0FBF1F201FB120000F130093019C1B2D2
:100CA0004A464046FFF7AAFF601CC4B2AC42E7DBED
:100CB000BDE8F0872DE9F04107460E4615460024B1
:100CC00007E02A5D3019C1B23846FFF797FF601C74
:100CD000C4B2285D0028F4D1BDE8F08110B5044607
:100CE000FFF7ECFE7820FFF7BFFE0020FFF7BCFE09
:100CF0002046FFF7B9FEFFF7FBFE10BD10B5044616
:100D0000FFF7DCFE7820FFF7AFFE4020FFF7ACFED8
:100D10002046FFF7A9FEFFF7EBFE10BD2DE9F047D7
:100D200004460D462946204601F001FB80F00040B4
:100D30002E4908602E4801684FF0804001F0FAF912
:100D400082462A480168504601F0F1FA8146294856
:100D50000168484601F05AF8804627480168404635
:100D600001F0E8F90646214801682448006801F0CE
:100D7000E1F981461E4801681C48006801F0E2FA6A
:100D800082461F480168504601F0D4F98046494622
:100D900001F03CF80746314601F038F8194908607F
:100DA000084601681848006801F030F816490860E4
:100DB0000E4800680E490860084600680D49086042
:100DC00012491148006801F081FA02D20F480E4919
:100DD000086000210C48006801F078F902D2002078
:100DE0000949086008480068BDE8F0871400002041
:100DF000180000201C000020300000202C000020E3
:100E00002800002024000020200000200000C8420C
:100E100000B589B00121084600F050F801210420F6
:100E200000F05CF818208DF823000420ADF82000B5
:100E300003208DF8220008A91A48FFF7BFFC4FF0E5
:100E4000804000F0F3F90020ADF81A00ADF816006C
:100E50006320ADF8180041F63F10ADF814000020F3
:100E60008DF81C0005A94FF0804000F041FA01A860
:100E700000F032FA6020ADF804000020ADF80C005C
:100E80000120ADF806000020ADF80A0001A94FF0DE
:100E9000804000F0D1F90121880700F0BBF909B0CA
:100EA00000BD00000008014010B5044621464FF087
:100EB000804000F01BFA10BD7047000029B1064ABF
:100EC000D2690243044BDA6104E0034AD2698243E7
:100ED000014BDA61704700000010024029B1064A58
:100EE00092690243044B9A6104E0034A9269824387
:100EF000014B9A61704700000010024030B500219C
:100F00000022002400232D4D6D6805F00C0121B155
:100F1000042905D0082923D105E0294D056022E0E8
:100F2000274D05601FE0254D6D6805F47012234DB7
:100F30006D6805F48034022505EB92421CB9214D01
:100F4000554305600BE01D4D6D6805F400351DB17E
:100F50001C4D5543056002E0194D5543056002E004
:100F6000174D056000BF00BF144D6D6805F0F0011E
:100F70000909154D6B5C0568DD4045600F4D6D68D6
:100F800005F4E061090A104D6B5C4568DD40856041
:100F90000A4D6D6805F46051C90A0B4D6B5C4568DC
:100FA000DD40C560054D6D6805F44041890B074D76
:100FB0006B5CC568B5FBF3F5056130BD0010024000
:100FC00000127A0000093D000000002010000020FF
:100FD0007047000000B587B001218803FFF77EFF4E
:100FE00001210420FFF77AFF18208DF81B004FF431
:100FF0000070ADF8180003208DF81A0006A92148EA
:10100000FFF7DCFB48208DF81B004FF48060ADF843
:10101000180003208DF81A0006A91A48FFF7CEFB26
:101020004FF4165002900020ADF814000C20ADF8DB
:1010300012000020ADF81000ADF80E00ADF80C0065
:1010400002A9114800F03AFA012240F225510E4857
:1010500000F00EFA4FF4A060FFF7BEFC25208DF8DB
:10106000040001208DF807008DF805008DF80600BA
:1010700001A8FFF779FC0121034800F0B6F907B099
:1010800000BD0000000801400038014010B50446D2
:101090002146054800F083FA00BF8021024800F095
:1010A000B0F90028F9D010BD0038014070B50446F1
:1010B000002504E0605DFFF7E9FF681CC5B2605DD4
:1010C0000028F7D170BD10B500F002F810BD000087
:1010D0000CB50020019000903348006840F4803047
:1010E0003149086000BF3048006800F400300090CB
:1010F0000198401C0190009818B90198B0F5A06FB4
:10110000F1D12948006800F4003010B101200090AE
:1011100001E0002000900098012843D12348006896
:1011200040F01000214908600846006820F00300E4
:1011300008600846006840F0020008601A484068ED
:10114000194948600846406848600846406840F4CD
:10115000806048600846406820F47C10486008467B
:10116000406840F4E81048600846006840F080702D
:10117000086000BF0C48006800F000700028F9D03B
:101180000948406820F00300074948600846406865
:1011900040F00200486000BF0348406800F00C00C7
:1011A0000828F9D10CBD00000010024000200240C8
:1011B0007047000010B51348006840F00100114965
:1011C000086008464068104908400E4948600846D3
:1011D00000680E4908400B4908600846006820F482
:1011E000802008600846406820F4FE0048604FF404
:1011F0001F008860FFF767FF4FF000600449086038
:1012000010BD0000001002400000FFF8FFFFF6FED6
:1012100008ED00E021B1028842F00102028004E002
:1012200002884FF6FE731A400280704701894FF61C
:10123000F87211400181704770B50024002200232C
:10124000058C4FF6FF6635400584028C8388848BBD
:101250004FF68F752C404FF6FC752C400D882C43B3
:101260004FF6FF552A400D894FF6FF7606EA052511
:101270002A434D8806EA05252A43154DA84202D087
:10128000144DA8421DD14FF2FF752A404D894FF6EB
:10129000FF7606EA05252A434FF6FF352A408D885A
:1012A00006EA05252A434EF6FF752B404DF6FF75DD
:1012B0002B408D8906EA05152B43CD8906EA0515D5
:1012C0002B4383808483CD888587028470BD000092
:1012D000002C0140003401400021018041808180C8
:1012E000C180018141818181C181704781877047BF
:1012F000002202881D4B98420ED01D4B98420BD005
:10130000B0F1804F08D01B4B984205D01A4B984241
:1013100002D01A4B984204D14FF68F731A404B8873
:101320001A43174B984207D0164B984204D04FF6F9
:10133000FF431A40CB881A4302808B8883850B8831
:1013400003850A4B98420BD0094B984208D00E4BAC
:10135000984205D00D4B984202D00D4B984201D1D6
:101360000B7A03860123838270470000002C014022
:10137000003401400004004000080040000C004020
:1013800000100040001400400040014000440140B3
:101390000048014010B540F22551094800F03EF8E0
:1013A00001280CD1064800F0F5F806490870012024
:1013B0000549087040F22551014800F007F810BDBA
:1013C00000380140340000203500002010B5002214
:1013D000002340F66A14A14200D100BF0A12012482
:1013E0009440A3B2DC43048010BD21B1828942F451
:1013F0000052828104E082894DF6FF731A40828197
:10140000704702460020B1F5007F00D100BF13886D
:101410000B400BB1012000E00020704770B5024680
:10142000002400230025002040F66A16B14200D1B6
:1014300000BFC1F3421501F01F03012606FA03F3B2
:10144000012D02D19689334006E0022D02D1168A81
:10145000334001E0968A33400C12012606FA04F468
:101460001688344013B10CB1012000E0002070BD9B
:10147000F0B50346002400260025002040F66A1738
:10148000B94200D100BF1846C1F3421401F01F0653
:10149000012707FA06F5012C01D10C3004E0022CDB
:1014A00001D1103000E014301AB107682F430760F3
:1014B00002E00768AF430760F0BD00002DE9F04788
:1014C00086B005460E460024A24600BFA14600276E
:1014D000B08900B100BF2F462C8A4CF6FF70044043
:1014E000F08804432C82AC894EF6F3100440B08897
:1014F00031890843718908430443AC81AC8A4FF6B3
:10150000FF400440B0890443AC8201A8FFF7F6FC19
:101510001F48874202D1DDF810A001E0DDF80CA0E1
:10152000A88900F4004040B10AEBCA0000EB0A10A1
:1015300031684900B0FBF1F807E00AEBCA0000EBA4
:101540000A1031688900B0FBF1F86420B8FBF0F0B4
:1015500004012009642101FB1089A88900F40040DE
:1015600040B1322000EBC900B0FBF1F000F0070001
:10157000044308E0322000EB09106421B0FBF1F0D5
:1015800000F00F0004432C8106B0BDE8F087000096
:101590000038014001468888C0F308007047C1F355
:1015A00008028280704700BFFEE730380A2801D267
:1015B0000120704700207047FFF7AEFAFFF728FCC4
:1015C000FFF708FDFEF7D0FFFFF7B4F9C5E0FFF71E
:1015D0007BF8002877D1FFF727F8604908700846A4
:1015E00000780A2190FBF1F0642190FBF1F201FBFD
:1015F00012005B490870594800780A2190FBF1F20B
:1016000001FB1200574908700846007800F04AFDB7
:101610000646554900F068FC04465148007800F041
:1016200041FD0546214600F0F1FB50490860504855
:10163000007801281DD14FA201210846FFF73AFB8F
:101640004EA209210120FFF735FB4DA20621012002
:10165000FFF730FB02234248027807210120FFF701
:1016600007FB01233F4802780A211846FFF700FBD9
:101670001CE040A201210846FFF71CFB3FA2092104
:101680000120FFF717FB3FA206210120FFF712FB05
:1016900002233348027807210120FFF7E9FA0123EA
:1016A000304802780A211846FFF7E2FA2D480378FD
:1016B0002B48027834A13648FEF78AFD3448FFF7FC
:1016C000F5FC05E0FFE733A201210846FFF7F2FA37
:1016D000FFF714F93249087008460078022818D13B
:1016E0003048006800F066FB064600222E4B00F0F2
:1016F00077FA044600F05CF82A4908604FF07E5102
:101700002848006800F0E2FC03D24FF082402549EF
:1017100008602448006800F0A9FC04460323224620
:1017200001211846FFF7A4FA1E4801680F48006817
:10173000FFF7F4FA044600F099FC1C4908700846CB
:101740000078FFF7B1FB032318480278012102203B
:10175000FFF78EFA3220FFF70EF838E73900002045
:101760004400002045000020000020413C000020F3
:101770003600002054656D703D0000002E00000012
:101780002D0000002B00000025752E25750000009F
:101790004C0000204E6F2073656E736F7200000066
:1017A00049000020400000200000F03F48000020D9
:1017B00021F00042A2F16052B2F5801F01F0004317
:1017C00028BFD2F17F6C0BD95FEA001C43EAC2024A
:1017D00042EB507018BF704728BF20F001007047DF
:1017E000B2F5801FBCBF184670474FEA410C1CF58C
:1017F000001F02D2084600F064BD70B500F09CF9ED
:1018000000000089FFF7F6BF4FF00040A0F5800010
:101810007047000010B591EA030F48BF83F0004302
:1018200000F1E681841A71EB030C05D2121943EB27
:101830000C03001B61EB0C01DFF824E14FEA1154AB
:10184000A4EB135C1EEA430F18BF9EEA445F73D0FB
:1018500023EA0E03DCF1200E21EA045143F4801345
:1018600032D322FA0CFE10EB0E0023FA0CFE41EBF1
:101870000E01CCF1200E03FA0EFE10EB0E0051F11A
:101880000001B1F5801FCCF1200E32D201EB0451E2
:1018900012FA0EF2BDE8104058BF7047401C38BF26
:1018A0005FEA420218BF7047002814BF20F0010011
:1018B00041F100014FEA410313F5001F38BF7047A3
:1018C000A1F1C04100F086B9012A43EB0302ACF15B
:1018D000200CDCF11F0E32BF4FF0000E23FA0CF388
:1018E00010EB030041EB0451B4EB115FD0D0A1EB3E
:1018F000045101F5801149085FEA300001EB045101
:101900000ED350F1000038BF12FA0EFE08D1BDE828
:101910001040C9E7401C38BF5FEA4202CAD1C3E7A2
:10192000BDE810404FEA410313F5001F38BF704770
:10193000A1F1C04100F04EB99EEA445F08D011EA1F
:101940005E0FBDE8104004BF01F000410020704769
:10195000BDE8104070B500F0EFF800BF64FBBE3E7C
:101960000000E0FF4FEA1153A3F58063D3F11E039B
:10197000A8BFD3F1200C08DB4FF0004242EAC1229D
:1019800052EA505232FA03F0704709420BD4102B3E
:10199000C4BF0020704703F5787CBCF1FF3F05D041
:1019A0004FF0FF3070474FF00000704770B500F007
:1019B000C3F800BF4992248000207047F0E7B0FAD6
:1019C00080F310FA03F10AD0C3F11D0303F580631D
:1019D0004FEA41504FEA035202EBD12170474FF0DA
:1019E00000007047DFF848C170B51CEA111E1EBF29
:1019F0001CEA13159EEA0C0F95EA0C0F00F06F809D
:101A000081EA030423EA4C134EEAD47E21EA4C1106
:101A100041F4801143F48013AE44A1FB024CA0FBBF
:101A20000365AEF17F7E361955EB0C05A1FB034C27
:101A30004CF10003A0FB021C16EB0C06654153F1B0
:101A40000003094218BF46F0010613F4007F0BD1D2
:101A50004FEA03314FEA0530340341EA155140EAB9
:101A600016506FF003020AE04FEAC3214FEAC52087
:101A7000F40241EA555140EA56506FF0020202EB7F
:101A80002E4201EB025585EACE710AD05FEA440C82
:101A900018BF24F0004450F1000041F1000120EA99
:101AA000D47040F2FE7C624500D270BDA84214BFE3
:101AB0004FF080444FF04044002E08BF0024BEF198
:101AC000806FA8BFA1F1C041BDE8704080F2828064
:101AD0004FF0000001F1C04101F0004170479EEA63
:101AE0000C0F0CEA131518BF95EA0C0F06D04FF037
:101AF000000081EA030E0EF0004170BD00F01CF8FA
:101B00008900013E00F007B800F009B84FEA430C25
:101B10005FEA5C5C08D081EA030100F05BB84FEA41
:101B2000410C5FEA5C5CF6D14FF000000149704760
:101B30000000FF070000F87F0EF1020E2EF0030EEA
:101B40005EF8046B364205D4012A43EB030515F514
:101B5000001F12D8012841EB010C1CF5001F0CD806
:101B60000ED14FEAD17C15F5001F0CEB4C0C0CF19B
:101B7000020C08BF4CEBD37C04E04FF0080C01E0F2
:101B80004FEAD37C0CEB4C0526FA05F606F0070667
:101B9000B6F1040C06D20EEB860CBDE870404CF09A
:101BA000010C6047DFE80CF0090B02024FF0004126
:101BB0004FF00000A1F5002170BD19461046012824
:101BC00051EB010418BFD4F5001484BF002001F0CC
:101BD000004170BD0808A0F500114FEA31017047BF
:101BE00010B591EA030F48BF83F000433FF51AAEEA
:101BF000841A71EB030C07D212198CF0004C43EBE2
:101C00000C03001B61EB0C01DFF8A4E14FEA115457
:101C1000A4EB135C1EEA430F18BF9EEA445F00F07A
:101C2000B08023EA6E03524221EA0451C3EB6E03F3
:101C300038BF5B1EDCF1200E25D322FA0CFE10EB20
:101C40000E0043FA0CFE41EB0E01CCF1200E03FA1C
:101C50000EFE10EB0E0051F10001CCF1200E29D444
:101C600012FA0EF201EB0451BDE8104058BF704764
:101C7000401C1CBFB2F1004F704700280CBF491C2C
:101C800020F00100704712EB020E43EB030218BF75
:101C90004FF0010E4EEA4202ACF1200CDCF11E0EB8
:101CA00054D943FA0CFE10EB0E0051F1FF31CCF188
:101CB0001E0ED5D50EF1010E12FA0EFE404141EB7B
:101CC000010101EB445C5FEA5C5C10D910EBDE7053
:101CD00001EB045138BFBEF1004FBDE8104018BF02
:101CE000704700280CBF491C20F00100704730D21B
:101CF0004FEAD42C11F5001124F400641BD0B1FA82
:101D000081F20B3AA41AA41ED2F12003914030FABA
:101D100003F31943904001EBCC71002C01EB04510B
:101D2000BDE81040A8BF704701F1C0414FF000006E
:101D300001F000417047B0FA80F310FA03F100D1CE
:101D400010BDE41A173C4805C90AE4E701EB045149
:101D500010BD491001EB0451BDE810404FEA3000BE
:101D600002E04FF0000170474A0008BF0042F8D07F
:101D7000B2F5001F28BF704701F000414FF000008E
:101D800070479EEA445F07D011EA5E0FBDE810403D
:101D900004BF002100207047BDE8104070B5FFF778
:101DA000CBFE00BF40DFF63E83F000411046704797
:101DB0000000E0FF43004FEAD30C4FEA3C0C4340E5
:101DC0001FBF40070CF1605113F0FE4F70471CF02D
:101DD000006F03D100200CF0004170470CF000436D
:101DE00043EA507010B540EACC0000F024FA00BF7E
:101DF000000000924FEA0001FFF7ECBE4FF00041F7
:101E00004FF00000A1F500217047000090EA010F9B
:101E100048BF81F0004100F19C82421A3CBF801A09
:101E200089184FEAD0524FF07F4C1CEA410FA2EBC9
:101E3000D15318BF9CEA026F00F03B804FF0004C7A
:101E40004CEA00204CEA012121FA03FC10EB0C0CB7
:101E50001ED202F1FF325FEA1C2040EBC25038BFB5
:101E600070471CF07F0F4FEA400C18BFBCF17F4F4A
:101E700038BF7047C3F12003994008BF20F001002C
:101E8000BCF17F4F38BF7047A0F1C04000F019BAD5
:101E90004FEA3C00000A40EBC25028BF1CF0FF0F85
:101EA0004FEA400CE6D018BFBCF17F4F38BF7047F7
:101EB000EAE79CEA026F05D010EA5C0F08BF00F069
:101EC0000040704710B500F0B6F900BF64FBBE3E9D
:101ED000401058BFC0F14040491058BFC1F14041C7
:101EE0008142EFF3008070474FF47F0C1CEAD01260
:101EF0001EBF1CEAD11392EA0C0F93EA0C0F00F0FC
:101F0000858090EA010F48BF42F4807240F4000CD3
:101F100041F400002CF07F4120F07F4000B5814269
:101F2000A2EB03020FF2081CACEB504EC0F1000014
:101F30009EF800E04FEA4E0E00FB0EFC38BF490051
:101F40004FEA2C1C02F5FA020CFB0EF34FEACE1EF0
:101F50004FEA112C4FEAC1210EEB635E42EB2242A5
:101F60000EFB0CFC4FEA1C5300FB03114FEA112C33
:101F70004FEA01310EFB0CFC4FEADC4C00FB0C116C
:101F8000C14228BF09184CEB03335DF804EB10EB9A
:101F9000410143EBC250B2F57C0F38BF704729D5E1
:101FA00012F0F00F1CBF00F1C04000F0004070477D
:101FB000008182838485868788898B8C8D8E8F9122
:101FC0009293959697999A9C9D9FA0A2A3A5A7A846
:101FD000AAACAEB0B2B3B5B7B9BCBEC0C2C5C7C972
:101FE000CCCED1D4D7D9DCDFE2E6E9ECF0F3F7FAD6
:101FF000FE0000004FEA400C0CF1807CBCF17E4FEB
:1020000028BF7047B0F1C04000F05BB990EA010F03
:102010000CEAD11348BF42F48072624538BF634571
:1020200007D213F47F0F16D080EA010000F00040C1
:10203000704710B500F0FFF8097EFC3E00F005B8CF
:1020400080EA010000F00040704780EA010000F0E3
:10205000004000F036B912F47F0F04BF0248704709
:1020600080EA010000F02DB90000C07F41000B0E96
:10207000D3F19E0208D950F400034FEA032323FA58
:1020800002F048BF4042704710B500F0D4F800BFDE
:1020900049922480002070476FF0004282EA2000BD
:1020A00070470000B0FA80F310FA03F2C3F19D0309
:1020B0000AD0D90501EB1220530638BF704700F152
:1020C000010008BF20F001007047000050EA010C39
:1020D00000F113801CF5000F58BFBCF5000F01D4B0
:1020E0008842704707D710F5000F58BF11F5000F51
:1020F00015D488427047894270471CF5000F04D5FB
:10210000BCF5000FF7D5814270474FF0807C1CEB87
:10211000400F38BF1CEB410F01D28142704710B510
:1021200000F089F8922449004FF000504FF08051A0
:10213000FFF7CEBE4FF47F0C1CEAD0121EBF1CEA84
:10214000D11392EA0C0F93EA0C0F00F0478090EA4B
:10215000010F48BF42F480724FF0004C4CEA00205F
:102160004CEA012102EB0302A0FB0113A2F50002DD
:10217000002918BF43F001035B0028BF4FEA330377
:1021800042EB22425FEA132C4CEBC2502EBFBCEB59
:10219000436FB2F57C0F70474FEA036CBCF1004F00
:1021A00008BF20F00100B2F57C0F38BF70470BD597
:1021B00082F0FF0212F5803FC8BF704700F1C040B7
:1021C000D8BF00F00040704700F5000C5FEA4C0CEF
:1021D00048BF7047B0F1C04000F073B890EA010FFB
:1021E0000CEAD11348BF42F48072624538BF6345A0
:1021F00004D280EA010000F00040704710B500F002
:102200001AF800BF8900013E00F007B800F009B8D5
:102210005FEA410C5FEA1C6C08D080EA010000F024
:1022200050B85FEA400C5FEA1C6CF6D14FF00040FA
:10223000A0F5800070470EF1020E2EF0030E5EF83E
:10224000044B244204D44FEA4102B2F17F4F11D82B
:102250004FEA4003B3F17F4F0CD80ED14FEAD07C48
:10226000B2F17F4F0CEB4C0C0CF1020C08BF4CEBA5
:10227000D17C04E04FF0080C01E04FEAD17C0CEB7C
:102280004C0324FA03F404F00704B4F1040C06D25E
:102290000EEB840CBDE810404CF0010C6047DFE809
:1022A0000CF0070802024FF00040A0F5800010BDBE
:1022B0000846420018BFD2F1807288BF00F000408B
:1022C00010BDFF2141EAD050C005704751EA000C13
:1022D00000F113801CF5000F58BFBCF5000F01D4AE
:1022E0008142704707D711F5000F58BF10F5000F56
:1022F00015D481427047894270471CF5000F04D500
:10230000BCF5000FF7D5884270474FF0807C1CEB7E
:10231000410F38BF1CEB400F01D28842704780EA62
:10232000010081EA000180EA0100FFF7F8BE80F0B9
:10233000004090EA010F7FF570AD81F0004100F0A0
:1023400008B8000090EA010F48BF81F000413FF556
:1023500064AD421A04D882F00042A0EB020011449E
:102360004FEAD0524FF07F4C1CEA410FA2EBD15301
:1023700018BF9CEA026F4AD04FF0004C4CEA002094
:102380004CEA012121FA03FCB0EB0C0C0FD412F043
:10239000FE0F36D05FEA4C001DD5001240EBC25054
:1023A00038BF70471CF03F0F18BF70470BE0A2F119
:1023B00001025FEA1C2040EBC25038BF70471CF09E
:1023C0007F0F18BF7047C3F12003994014BF401E10
:1023D00020F00100704780084FEA122308BF7047C1
:1023E000B0FA80FCA2EB0C02CCF1280C60FA0CF0E5
:1023F00093EA122F04BF00EBC25070474FEAC3703C
:102400007047130A5FEADC1008BF7047F6E79CEAE2
:10241000026F04D010EA5C0F08BF0020704710B5AF
:10242000FFF709FF40DFF63E81F0004070470000F3
:10243000000000000000000000000000000000009C
:1024400000F8000000000000003330000000001021
:102450000C06100C0600000000000000000040C048
:102460007840C0784000043F04043F04040000703A
:1024700088FC08300000001820FF211E0000F00832
:10248000F000E018000000211C031E211E0000F0D7
:102490000888700000001E2123241927211010161F
:1024A0000E0000000000000000000000000000001E
:1024B00000E018040200000000071820400000029D
:1024C0000418E00000000040201807000000404011
:1024D00080F0804040000202010F01020200000073
:1024E00000F0000000000101011F010101000000D7
:1024F00000000000000080B070000000000000003C
:1025000000000000000000010101010101010000C4
:10251000000000000000003030000000000000005B
:10252000000080601804006018060100000000E050
:1025300010080810E000000F102020100F000010FD
:1025400010F8000000000020203F20200000007054
:10255000080808887000003028242221300000304C
:102560000888884830000018202020110E00000044
:10257000C02010F8000000070424243F240000F8C5
:102580000888880808000019212020110E0000E0AA
:10259000108888180000000F112020110E0000384C
:1025A0000808C83808000000003F00000000007064
:1025B000880808887000001C222121221C0000E0ED
:1025C00010080810E0000000312222110F00000066
:1025D00000C0C0000000000000303000000000001B
:1025E000008000000000000080600000000000008B
:1025F0008040201008000001020408102000404024
:102600004040404040000404040404040400000866
:10261000102040800000002010080402010000701B
:1026200048080808F0000000003036010000C03003
:10263000C828E810E0000718272423140B00000026
:10264000C038E0000000203C23020227382008F8B0
:10265000888888700000203F202020110E00C030A4
:10266000080808083800071820202010080008F87B
:1026700008080810E000203F202020100F0008F874
:102680008888E8081000203F20202320180008F840
:102690008888E8081000203F200003000000C030B8
:1026A00008080838000007182020221E020008F839
:1026B00008000008F808203F210101213F20000800
:1026C00008F8080800000020203F2020000000003B
:1026D0000808F8080800C08080807F00000008F823
:1026E00088C028180800203F20012638200008F85C
:1026F000080000000000203F20202020300008F8C3
:10270000F800F8F80800203F003F003F200008F8DC
:1027100030C00008F808203F200007183F00E010F4
:1027200008080810E0000F10202020100F0008F803
:1027300008080808F000203F210101010000E01016
:1027400008080810E0000F18242438504F0008F83B
:10275000888888887000203F2000030C302000709B
:102760008808080838000038202121221C00180899
:1027700008F8080818000000203F2000000008F8B2
:1027800008000008F808001F202020201F000878FB
:10279000880000C83808000007380E010000F8085B
:1027A00000F80008F800033C0700073C0300081885
:1027B00068808068180820302C03032C30200838EB
:1027C000C800C83808000000203F200000001008A2
:1027D0000808C838080020382621202018000000EA
:1027E00000FE020202000000007F40404000000C9A
:1027F00030C000000000000000010638C0000002E8
:102800000202FE000000004040407F000000000087
:1028100004020202040000000000000000000000AA
:1028200000000000000080808080808080800002A6
:102830000204000000000000000000000000000092
:102840008080808000000019242222223F2008F886
:10285000008080000000003F112020110E000000C9
:10286000008080800000000E112020201100000058
:1028700000808088F800000E112020103F2000000A
:10288000808080800000001F22222222130000800E
:1028900080F0888888180020203F20200000000059
:1028A000808080808000006B94949493600008F88E
:1028B000008080800000203F210000203F20008019
:1028C0009898000000000020203F20200000000019
:1028D00000809898000000C08080807F000008F889
:1028E000000080808000203F24022D30200000085E
:1028F00008F8000000000020203F20200000808019
:10290000808080808000203F20003F20003F80802A
:10291000008080800000203F210000203F20000038
:10292000808080800000001F202020201F008080E9
:1029300000808000000080FFA12020110E00000018
:10294000008080808000000E112020A0FF80808009
:1029500080008080800020203F21200001000000B6
:10296000808080808000003324242424190000808B
:1029700080E0808000000000001F20200000808098
:10298000000000808000001F202020103F20808059
:1029900080000080808000010E30080601008080E9
:1029A0000080008080800F300C030C300F0000800E
:1029B0008000808080000020312E0E312000808039
:1029C00080000080808080818E7018060100008069
:1029D0008080808080000021302C22213000000087
:1029E0000000807C020200000000003F4040000028
:1029F0000000FF00000000000000FF0000000002D7
:102A0000027C800000000040403F00000000000603
:102A100001010202040400000000000000000400A4
:102A2000000800000000000000020001000010008B
:102A3000502A0008000000204C0000002801000877
:102A40009C2A00084C0000206C060000440100088D
:102A50000000000001020304010203040607080944
:102A60000204060800000000000000000000000052
:102A700000000000000000000000A041CDCCCC3ED2
:102A80000000803F00000000000000000000000087
:0C2A9000000000410000000000000000F9
:04000005080000ED02
:00000001FF
